{
  "contractName": "checkActeur",
  "abi": [
    {
      "inputs": [],
      "stateMutability": "nonpayable",
      "type": "constructor"
    },
    {
      "anonymous": false,
      "inputs": [
        {
          "indexed": true,
          "internalType": "address",
          "name": "_adresseEthereum",
          "type": "address"
        }
      ],
      "name": "InstituteAlreadyExists",
      "type": "event"
    },
    {
      "anonymous": false,
      "inputs": [
        {
          "indexed": true,
          "internalType": "string",
          "name": "_email",
          "type": "string"
        },
        {
          "indexed": false,
          "internalType": "string",
          "name": "_newPassword",
          "type": "string"
        }
      ],
      "name": "InstituteCredentialsUpdated",
      "type": "event"
    },
    {
      "inputs": [
        {
          "internalType": "address",
          "name": "",
          "type": "address"
        }
      ],
      "name": "compte",
      "outputs": [
        {
          "internalType": "bytes32",
          "name": "pass",
          "type": "bytes32"
        },
        {
          "internalType": "string",
          "name": "role",
          "type": "string"
        }
      ],
      "stateMutability": "view",
      "type": "function",
      "constant": true
    },
    {
      "inputs": [
        {
          "internalType": "uint256",
          "name": "",
          "type": "uint256"
        }
      ],
      "name": "institute",
      "outputs": [
        {
          "internalType": "address",
          "name": "adresseEthereum",
          "type": "address"
        },
        {
          "internalType": "string",
          "name": "name",
          "type": "string"
        },
        {
          "internalType": "string",
          "name": "email",
          "type": "string"
        },
        {
          "internalType": "string",
          "name": "WebSite",
          "type": "string"
        },
        {
          "internalType": "string",
          "name": "acronym",
          "type": "string"
        },
        {
          "internalType": "bool",
          "name": "autorisation",
          "type": "bool"
        }
      ],
      "stateMutability": "view",
      "type": "function",
      "constant": true
    },
    {
      "inputs": [],
      "name": "instituteCount",
      "outputs": [
        {
          "internalType": "uint256",
          "name": "",
          "type": "uint256"
        }
      ],
      "stateMutability": "view",
      "type": "function",
      "constant": true
    },
    {
      "inputs": [
        {
          "internalType": "string",
          "name": "email",
          "type": "string"
        },
        {
          "internalType": "string",
          "name": "passwordHash",
          "type": "string"
        }
      ],
      "name": "checkAuthorization",
      "outputs": [
        {
          "internalType": "bool",
          "name": "",
          "type": "bool"
        }
      ],
      "stateMutability": "view",
      "type": "function",
      "constant": true
    },
    {
      "inputs": [
        {
          "internalType": "address",
          "name": "_adresseEthereum",
          "type": "address"
        },
        {
          "internalType": "string",
          "name": "_name",
          "type": "string"
        },
        {
          "internalType": "string",
          "name": "_email",
          "type": "string"
        },
        {
          "internalType": "string",
          "name": "_WebSite",
          "type": "string"
        },
        {
          "internalType": "string[]",
          "name": "_departements",
          "type": "string[]"
        },
        {
          "internalType": "string",
          "name": "_acronym",
          "type": "string"
        }
      ],
      "name": "addInstitute",
      "outputs": [],
      "stateMutability": "nonpayable",
      "type": "function"
    },
    {
      "inputs": [
        {
          "internalType": "uint256",
          "name": "index",
          "type": "uint256"
        }
      ],
      "name": "getInstitute",
      "outputs": [
        {
          "internalType": "address",
          "name": "",
          "type": "address"
        },
        {
          "internalType": "string",
          "name": "",
          "type": "string"
        },
        {
          "internalType": "string",
          "name": "",
          "type": "string"
        },
        {
          "internalType": "string",
          "name": "",
          "type": "string"
        },
        {
          "internalType": "string[]",
          "name": "",
          "type": "string[]"
        },
        {
          "internalType": "string",
          "name": "",
          "type": "string"
        },
        {
          "internalType": "bool",
          "name": "",
          "type": "bool"
        }
      ],
      "stateMutability": "view",
      "type": "function",
      "constant": true
    },
    {
      "inputs": [],
      "name": "getInstituteCount",
      "outputs": [
        {
          "internalType": "uint256",
          "name": "",
          "type": "uint256"
        }
      ],
      "stateMutability": "view",
      "type": "function",
      "constant": true
    },
    {
      "inputs": [],
      "name": "getMyInstitute",
      "outputs": [
        {
          "internalType": "address",
          "name": "",
          "type": "address"
        },
        {
          "internalType": "string",
          "name": "",
          "type": "string"
        },
        {
          "internalType": "string",
          "name": "",
          "type": "string"
        },
        {
          "internalType": "string",
          "name": "",
          "type": "string"
        },
        {
          "internalType": "string[]",
          "name": "",
          "type": "string[]"
        },
        {
          "internalType": "string",
          "name": "",
          "type": "string"
        },
        {
          "internalType": "bool",
          "name": "",
          "type": "bool"
        }
      ],
      "stateMutability": "view",
      "type": "function",
      "constant": true
    },
    {
      "inputs": [
        {
          "internalType": "address",
          "name": "_adresseEthereum",
          "type": "address"
        }
      ],
      "name": "findInstitute",
      "outputs": [
        {
          "internalType": "int256",
          "name": "",
          "type": "int256"
        }
      ],
      "stateMutability": "view",
      "type": "function",
      "constant": true
    },
    {
      "inputs": [
        {
          "internalType": "string",
          "name": "_email",
          "type": "string"
        }
      ],
      "name": "getInstituteAddressByEmail",
      "outputs": [
        {
          "internalType": "address",
          "name": "",
          "type": "address"
        }
      ],
      "stateMutability": "view",
      "type": "function",
      "constant": true
    },
    {
      "inputs": [],
      "name": "getEmailFromAddress",
      "outputs": [
        {
          "internalType": "string",
          "name": "",
          "type": "string"
        }
      ],
      "stateMutability": "view",
      "type": "function",
      "constant": true
    },
    {
      "inputs": [
        {
          "internalType": "string",
          "name": "email",
          "type": "string"
        },
        {
          "internalType": "string",
          "name": "newPassword",
          "type": "string"
        }
      ],
      "name": "resetInstitutePassword",
      "outputs": [],
      "stateMutability": "nonpayable",
      "type": "function"
    },
    {
      "inputs": [
        {
          "internalType": "string",
          "name": "email",
          "type": "string"
        },
        {
          "internalType": "string",
          "name": "password",
          "type": "string"
        }
      ],
      "name": "authorizedInstitute",
      "outputs": [
        {
          "internalType": "bool",
          "name": "",
          "type": "bool"
        }
      ],
      "stateMutability": "view",
      "type": "function",
      "constant": true
    },
    {
      "inputs": [
        {
          "internalType": "address",
          "name": "addr",
          "type": "address"
        }
      ],
      "name": "getPassword",
      "outputs": [
        {
          "internalType": "bytes32",
          "name": "",
          "type": "bytes32"
        }
      ],
      "stateMutability": "view",
      "type": "function",
      "constant": true
    },
    {
      "inputs": [
        {
          "internalType": "string",
          "name": "email",
          "type": "string"
        },
        {
          "internalType": "string",
          "name": "oldPassword",
          "type": "string"
        },
        {
          "internalType": "string",
          "name": "newPassword",
          "type": "string"
        }
      ],
      "name": "updateInstituteCredentials",
      "outputs": [],
      "stateMutability": "nonpayable",
      "type": "function"
    },
    {
      "inputs": [
        {
          "internalType": "address",
          "name": "_instituteAddress",
          "type": "address"
        },
        {
          "internalType": "string",
          "name": "_institutename",
          "type": "string"
        },
        {
          "internalType": "string",
          "name": "_name",
          "type": "string"
        },
        {
          "internalType": "string",
          "name": "_email",
          "type": "string"
        },
        {
          "internalType": "string",
          "name": "_dateOfBirth",
          "type": "string"
        },
        {
          "internalType": "string",
          "name": "_mention",
          "type": "string"
        },
        {
          "internalType": "string",
          "name": "_dateRemiseDiplome",
          "type": "string"
        },
        {
          "internalType": "string",
          "name": "_numCIN",
          "type": "string"
        },
        {
          "internalType": "string",
          "name": "_department",
          "type": "string"
        },
        {
          "internalType": "string",
          "name": "_ipfsHash",
          "type": "string"
        },
        {
          "internalType": "string",
          "name": "_diplomaId",
          "type": "string"
        }
      ],
      "name": "addStudentForInstitute",
      "outputs": [],
      "stateMutability": "nonpayable",
      "type": "function"
    },
    {
      "inputs": [
        {
          "internalType": "address",
          "name": "_instituteAddress",
          "type": "address"
        }
      ],
      "name": "getStudentsForInstitute",
      "outputs": [
        {
          "components": [
            {
              "internalType": "string",
              "name": "institutename",
              "type": "string"
            },
            {
              "internalType": "string",
              "name": "name",
              "type": "string"
            },
            {
              "internalType": "string",
              "name": "email",
              "type": "string"
            },
            {
              "internalType": "string",
              "name": "dateOfBirth",
              "type": "string"
            },
            {
              "internalType": "string",
              "name": "mention",
              "type": "string"
            },
            {
              "internalType": "string",
              "name": "dateRemiseDiplome",
              "type": "string"
            },
            {
              "internalType": "string",
              "name": "numCIN",
              "type": "string"
            },
            {
              "internalType": "string",
              "name": "department",
              "type": "string"
            },
            {
              "internalType": "string",
              "name": "ipfsHash",
              "type": "string"
            },
            {
              "internalType": "string",
              "name": "id",
              "type": "string"
            }
          ],
          "internalType": "struct checkActeur.Student[]",
          "name": "",
          "type": "tuple[]"
        }
      ],
      "stateMutability": "view",
      "type": "function",
      "constant": true
    },
    {
      "inputs": [
        {
          "internalType": "string",
          "name": "_diplomaId",
          "type": "string"
        }
      ],
      "name": "getDiplomaById",
      "outputs": [
        {
          "components": [
            {
              "internalType": "string",
              "name": "institutename",
              "type": "string"
            },
            {
              "internalType": "string",
              "name": "name",
              "type": "string"
            },
            {
              "internalType": "string",
              "name": "email",
              "type": "string"
            },
            {
              "internalType": "string",
              "name": "dateOfBirth",
              "type": "string"
            },
            {
              "internalType": "string",
              "name": "mention",
              "type": "string"
            },
            {
              "internalType": "string",
              "name": "dateRemiseDiplome",
              "type": "string"
            },
            {
              "internalType": "string",
              "name": "numCIN",
              "type": "string"
            },
            {
              "internalType": "string",
              "name": "department",
              "type": "string"
            },
            {
              "internalType": "string",
              "name": "ipfsHash",
              "type": "string"
            },
            {
              "internalType": "string",
              "name": "id",
              "type": "string"
            }
          ],
          "internalType": "struct checkActeur.Student",
          "name": "",
          "type": "tuple"
        }
      ],
      "stateMutability": "view",
      "type": "function",
      "constant": true
    },
    {
      "inputs": [
        {
          "internalType": "string",
          "name": "_numCIN",
          "type": "string"
        }
      ],
      "name": "getDiplomaByCin",
      "outputs": [
        {
          "components": [
            {
              "internalType": "string",
              "name": "institutename",
              "type": "string"
            },
            {
              "internalType": "string",
              "name": "name",
              "type": "string"
            },
            {
              "internalType": "string",
              "name": "email",
              "type": "string"
            },
            {
              "internalType": "string",
              "name": "dateOfBirth",
              "type": "string"
            },
            {
              "internalType": "string",
              "name": "mention",
              "type": "string"
            },
            {
              "internalType": "string",
              "name": "dateRemiseDiplome",
              "type": "string"
            },
            {
              "internalType": "string",
              "name": "numCIN",
              "type": "string"
            },
            {
              "internalType": "string",
              "name": "department",
              "type": "string"
            },
            {
              "internalType": "string",
              "name": "ipfsHash",
              "type": "string"
            },
            {
              "internalType": "string",
              "name": "id",
              "type": "string"
            }
          ],
          "internalType": "struct checkActeur.Student",
          "name": "",
          "type": "tuple"
        }
      ],
      "stateMutability": "view",
      "type": "function",
      "constant": true
    }
  ],
  "bytecode": "0x6080604052737807c109b324ab7a3bbe36040b19e5007f3cb1ab6000806101000a81548173ffffffffffffffffffffffffffffffffffffffff021916908373ffffffffffffffffffffffffffffffffffffffff16021790555060006005553480156200006a57600080fd5b5060018060008060009054906101000a900473ffffffffffffffffffffffffffffffffffffffff1673ffffffffffffffffffffffffffffffffffffffff1673ffffffffffffffffffffffffffffffffffffffff16815260200190815260200160002060006101000a81548160ff0219169083151502179055506040518060600160405280604081526020016200531e60409139600260008060009054906101000a900473ffffffffffffffffffffffffffffffffffffffff1673ffffffffffffffffffffffffffffffffffffffff1673ffffffffffffffffffffffffffffffffffffffff16815260200190815260200160002090816200016b919062000491565b506040518060400160405280601181526020017f61646d696e406578616d706c652e636f6d000000000000000000000000000000815250600360008060009054906101000a900473ffffffffffffffffffffffffffffffffffffffff1673ffffffffffffffffffffffffffffffffffffffff1673ffffffffffffffffffffffffffffffffffffffff168152602001908152602001600020908162000210919062000491565b5062000578565b600081519050919050565b7f4e487b7100000000000000000000000000000000000000000000000000000000600052604160045260246000fd5b7f4e487b7100000000000000000000000000000000000000000000000000000000600052602260045260246000fd5b600060028204905060018216806200029957607f821691505b602082108103620002af57620002ae62000251565b5b50919050565b60008190508160005260206000209050919050565b60006020601f8301049050919050565b600082821b905092915050565b600060088302620003197fffffffffffffffffffffffffffffffffffffffffffffffffffffffffffffffff82620002da565b620003258683620002da565b95508019841693508086168417925050509392505050565b6000819050919050565b6000819050919050565b6000620003726200036c62000366846200033d565b62000347565b6200033d565b9050919050565b6000819050919050565b6200038e8362000351565b620003a66200039d8262000379565b848454620002e7565b825550505050565b600090565b620003bd620003ae565b620003ca81848462000383565b505050565b5b81811015620003f257620003e6600082620003b3565b600181019050620003d0565b5050565b601f82111562000441576200040b81620002b5565b6200041684620002ca565b8101602085101562000426578190505b6200043e6200043585620002ca565b830182620003cf565b50505b505050565b600082821c905092915050565b6000620004666000198460080262000446565b1980831691505092915050565b600062000481838362000453565b9150826002028217905092915050565b6200049c8262000217565b67ffffffffffffffff811115620004b857620004b762000222565b5b620004c4825462000280565b620004d1828285620003f6565b600060209050601f831160018114620005095760008415620004f4578287015190505b62000500858262000473565b86555062000570565b601f1984166200051986620002b5565b60005b8281101562000543578489015182556001820191506020850194506020810190506200051c565b868310156200056357848901516200055f601f89168262000453565b8355505b6001600288020188555050505b505050505050565b614d9680620005886000396000f3fe608060405234801561001057600080fd5b50600436106101215760003560e01c806382fa3ef4116100ad578063ced1e97811610071578063ced1e97814610378578063d007cf5614610396578063de990ee0146103c6578063e3e424d8146103f6578063fefb21a41461041257610121565b806382fa3ef4146102c4578063a17c2f32146102e0578063a4d3d2b014610310578063a4e4616f1461032c578063c6d2bcef1461034857610121565b806335f09844116100f457806335f09844146101ec578063576e57d11461021c57806360e7bb0d1461024057806363a184301461025e578063807cd15f1461029457610121565b806302e78090146101265780630802666814610157578063151f2f81146101875780631b24cb54146101b7575b600080fd5b610140600480360381019061013b91906135a9565b610430565b60405161014e92919061367f565b60405180910390f35b610171600480360381019061016c91906135a9565b6104dc565b60405161017e91906136af565b60405180910390f35b6101a1600480360381019061019c91906137ff565b610528565b6040516101ae9190613857565b60405180910390f35b6101d160048036038101906101cc91906138a8565b6105f0565b6040516101e3969594939291906138f0565b60405180910390f35b6102066004803603810190610201919061396d565b610889565b60405161021391906139e5565b60405180910390f35b610224610a40565b6040516102379796959493929190613b0c565b60405180910390f35b610248610f2c565b6040516102559190613bad565b60405180910390f35b610278600480360381019061027391906138a8565b610f39565b60405161028b9796959493929190613b0c565b60405180910390f35b6102ae60048036038101906102a991906137ff565b611398565b6040516102bb9190613ce1565b60405180910390f35b6102de60048036038101906102d99190613d03565b611985565b005b6102fa60048036038101906102f591906135a9565b611adb565b6040516103079190613dc3565b60405180910390f35b61032a6004803603810190610325919061396d565b611bab565b005b61034660048036038101906103419190613dde565b611d2d565b005b610362600480360381019061035d919061396d565b61213c565b60405161036f91906139e5565b60405180910390f35b610380612295565b60405161038d9190613fea565b60405180910390f35b6103b060048036038101906103ab91906135a9565b612406565b6040516103bd91906141e7565b60405180910390f35b6103e060048036038101906103db91906137ff565b612a59565b6040516103ed9190613ce1565b60405180910390f35b610410600480360381019061040b91906142ef565b613046565b005b61041a613404565b6040516104279190613bad565b60405180910390f35b600660205280600052604060002060009150905080600001549080600101805461045990614437565b80601f016020809104026020016040519081016040528092919081815260200182805461048590614437565b80156104d25780601f106104a7576101008083540402835291602001916104d2565b820191906000526020600020905b8154815290600101906020018083116104b557829003601f168201915b5050505050905082565b6000600660008373ffffffffffffffffffffffffffffffffffffffff1673ffffffffffffffffffffffffffffffffffffffff168152602001908152602001600020600001549050919050565b600080600090505b6004805490508110156105e55782805190602001206004828154811061055957610558614468565b5b9060005260206000209060070201600201604051610577919061453a565b6040518091039020036105d2576004818154811061059857610597614468565b5b906000526020600020906007020160000160009054906101000a900473ffffffffffffffffffffffffffffffffffffffff169150506105eb565b80806105dd90614580565b915050610530565b50600090505b919050565b6004818154811061060057600080fd5b90600052602060002090600702016000915090508060000160009054906101000a900473ffffffffffffffffffffffffffffffffffffffff169080600101805461064990614437565b80601f016020809104026020016040519081016040528092919081815260200182805461067590614437565b80156106c25780601f10610697576101008083540402835291602001916106c2565b820191906000526020600020905b8154815290600101906020018083116106a557829003601f168201915b5050505050908060020180546106d790614437565b80601f016020809104026020016040519081016040528092919081815260200182805461070390614437565b80156107505780601f1061072557610100808354040283529160200191610750565b820191906000526020600020905b81548152906001019060200180831161073357829003601f168201915b50505050509080600301805461076590614437565b80601f016020809104026020016040519081016040528092919081815260200182805461079190614437565b80156107de5780601f106107b3576101008083540402835291602001916107de565b820191906000526020600020905b8154815290600101906020018083116107c157829003601f168201915b5050505050908060050180546107f390614437565b80601f016020809104026020016040519081016040528092919081815260200182805461081f90614437565b801561086c5780601f106108415761010080835404028352916020019161086c565b820191906000526020600020905b81548152906001019060200180831161084f57829003601f168201915b5050505050908060060160009054906101000a900460ff16905086565b60008060405160200161089b9061461f565b60405160208183030381529060405280519060200120905060006002846040516020016108c89190614665565b6040516020818303038152906040526040516108e491906146b8565b602060405180830381855afa158015610901573d6000803e3d6000fd5b5050506040513d601f19601f8201168201806040525081019061092491906146fb565b9050600061093186610528565b90503373ffffffffffffffffffffffffffffffffffffffff168173ffffffffffffffffffffffffffffffffffffffff161480156109af575081600660008373ffffffffffffffffffffffffffffffffffffffff1673ffffffffffffffffffffffffffffffffffffffff16815260200190815260200160002060000154145b8015610a21575082600660008373ffffffffffffffffffffffffffffffffffffffff1673ffffffffffffffffffffffffffffffffffffffff168152602001908152602001600020600101604051602001610a0991906147c0565b60405160208183030381529060405280519060200120145b15610a325760019350505050610a3a565b600093505050505b92915050565b6000606080606080606060008033905060005b600480549050811015610ee7578173ffffffffffffffffffffffffffffffffffffffff1660048281548110610a8b57610a8a614468565b5b906000526020600020906007020160000160009054906101000a900473ffffffffffffffffffffffffffffffffffffffff1673ffffffffffffffffffffffffffffffffffffffff1603610ed457600060048281548110610aee57610aed614468565b5b90600052602060002090600702016040518060e00160405290816000820160009054906101000a900473ffffffffffffffffffffffffffffffffffffffff1673ffffffffffffffffffffffffffffffffffffffff1673ffffffffffffffffffffffffffffffffffffffff168152602001600182018054610b6d90614437565b80601f0160208091040260200160405190810160405280929190818152602001828054610b9990614437565b8015610be65780601f10610bbb57610100808354040283529160200191610be6565b820191906000526020600020905b815481529060010190602001808311610bc957829003601f168201915b50505050508152602001600282018054610bff90614437565b80601f0160208091040260200160405190810160405280929190818152602001828054610c2b90614437565b8015610c785780601f10610c4d57610100808354040283529160200191610c78565b820191906000526020600020905b815481529060010190602001808311610c5b57829003601f168201915b50505050508152602001600382018054610c9190614437565b80601f0160208091040260200160405190810160405280929190818152602001828054610cbd90614437565b8015610d0a5780601f10610cdf57610100808354040283529160200191610d0a565b820191906000526020600020905b815481529060010190602001808311610ced57829003601f168201915b5050505050815260200160048201805480602002602001604051908101604052809291908181526020016000905b82821015610de4578382906000526020600020018054610d5790614437565b80601f0160208091040260200160405190810160405280929190818152602001828054610d8390614437565b8015610dd05780601f10610da557610100808354040283529160200191610dd0565b820191906000526020600020905b815481529060010190602001808311610db357829003601f168201915b505050505081526020019060010190610d38565b505050508152602001600582018054610dfc90614437565b80601f0160208091040260200160405190810160405280929190818152602001828054610e2890614437565b8015610e755780601f10610e4a57610100808354040283529160200191610e75565b820191906000526020600020905b815481529060010190602001808311610e5857829003601f168201915b505050505081526020016006820160009054906101000a900460ff1615151515815250509050806000015181602001518260400151836060015184608001518560a001518660c001519950995099509950995099509950505050610f23565b8080610edf90614580565b915050610a53565b506040517f08c379a0000000000000000000000000000000000000000000000000000000008152600401610f1a90614823565b60405180910390fd5b90919293949596565b6000600480549050905090565b600060608060608060606000808810158015610f59575060048054905088105b610f98576040517f08c379a0000000000000000000000000000000000000000000000000000000008152600401610f8f906148b5565b60405180910390fd5b600060048981548110610fae57610fad614468565b5b90600052602060002090600702016040518060e00160405290816000820160009054906101000a900473ffffffffffffffffffffffffffffffffffffffff1673ffffffffffffffffffffffffffffffffffffffff1673ffffffffffffffffffffffffffffffffffffffff16815260200160018201805461102d90614437565b80601f016020809104026020016040519081016040528092919081815260200182805461105990614437565b80156110a65780601f1061107b576101008083540402835291602001916110a6565b820191906000526020600020905b81548152906001019060200180831161108957829003601f168201915b505050505081526020016002820180546110bf90614437565b80601f01602080910402602001604051908101604052809291908181526020018280546110eb90614437565b80156111385780601f1061110d57610100808354040283529160200191611138565b820191906000526020600020905b81548152906001019060200180831161111b57829003601f168201915b5050505050815260200160038201805461115190614437565b80601f016020809104026020016040519081016040528092919081815260200182805461117d90614437565b80156111ca5780601f1061119f576101008083540402835291602001916111ca565b820191906000526020600020905b8154815290600101906020018083116111ad57829003601f168201915b5050505050815260200160048201805480602002602001604051908101604052809291908181526020016000905b828210156112a457838290600052602060002001805461121790614437565b80601f016020809104026020016040519081016040528092919081815260200182805461124390614437565b80156112905780601f1061126557610100808354040283529160200191611290565b820191906000526020600020905b81548152906001019060200180831161127357829003601f168201915b5050505050815260200190600101906111f8565b5050505081526020016005820180546112bc90614437565b80601f01602080910402602001604051908101604052809291908181526020018280546112e890614437565b80156113355780601f1061130a57610100808354040283529160200191611335565b820191906000526020600020905b81548152906001019060200180831161131857829003601f168201915b505050505081526020016006820160009054906101000a900460ff1615151515815250509050806000015181602001518260400151836060015184608001518560a001518660c00151975097509750975097509750975050919395979092949650565b6113a061340a565b6008826040516113b09190614665565b9081526020016040518091039020604051806101400160405290816000820180546113da90614437565b80601f016020809104026020016040519081016040528092919081815260200182805461140690614437565b80156114535780601f1061142857610100808354040283529160200191611453565b820191906000526020600020905b81548152906001019060200180831161143657829003601f168201915b5050505050815260200160018201805461146c90614437565b80601f016020809104026020016040519081016040528092919081815260200182805461149890614437565b80156114e55780601f106114ba576101008083540402835291602001916114e5565b820191906000526020600020905b8154815290600101906020018083116114c857829003601f168201915b505050505081526020016002820180546114fe90614437565b80601f016020809104026020016040519081016040528092919081815260200182805461152a90614437565b80156115775780601f1061154c57610100808354040283529160200191611577565b820191906000526020600020905b81548152906001019060200180831161155a57829003601f168201915b5050505050815260200160038201805461159090614437565b80601f01602080910402602001604051908101604052809291908181526020018280546115bc90614437565b80156116095780601f106115de57610100808354040283529160200191611609565b820191906000526020600020905b8154815290600101906020018083116115ec57829003601f168201915b5050505050815260200160048201805461162290614437565b80601f016020809104026020016040519081016040528092919081815260200182805461164e90614437565b801561169b5780601f106116705761010080835404028352916020019161169b565b820191906000526020600020905b81548152906001019060200180831161167e57829003601f168201915b505050505081526020016005820180546116b490614437565b80601f01602080910402602001604051908101604052809291908181526020018280546116e090614437565b801561172d5780601f106117025761010080835404028352916020019161172d565b820191906000526020600020905b81548152906001019060200180831161171057829003601f168201915b5050505050815260200160068201805461174690614437565b80601f016020809104026020016040519081016040528092919081815260200182805461177290614437565b80156117bf5780601f10611794576101008083540402835291602001916117bf565b820191906000526020600020905b8154815290600101906020018083116117a257829003601f168201915b505050505081526020016007820180546117d890614437565b80601f016020809104026020016040519081016040528092919081815260200182805461180490614437565b80156118515780601f1061182657610100808354040283529160200191611851565b820191906000526020600020905b81548152906001019060200180831161183457829003601f168201915b5050505050815260200160088201805461186a90614437565b80601f016020809104026020016040519081016040528092919081815260200182805461189690614437565b80156118e35780601f106118b8576101008083540402835291602001916118e3565b820191906000526020600020905b8154815290600101906020018083116118c657829003601f168201915b505050505081526020016009820180546118fc90614437565b80601f016020809104026020016040519081016040528092919081815260200182805461192890614437565b80156119755780601f1061194a57610100808354040283529160200191611975565b820191906000526020600020905b81548152906001019060200180831161195857829003601f168201915b5050505050815250509050919050565b61198f8383610889565b6119ce576040517f08c379a00000000000000000000000000000000000000000000000000000000081526004016119c590614921565b60405180910390fd5b60006002826040516020016119e39190614665565b6040516020818303038152906040526040516119ff91906146b8565b602060405180830381855afa158015611a1c573d6000803e3d6000fd5b5050506040513d601f19601f82011682018060405250810190611a3f91906146fb565b905080600660003373ffffffffffffffffffffffffffffffffffffffff1673ffffffffffffffffffffffffffffffffffffffff1681526020019081526020016000206000018190555083604051611a969190614665565b60405180910390207f8bdb409891725ce39196ef62e4575eaa0766913147d8e78b2c818015ecd7652983604051611acd9190613fea565b60405180910390a250505050565b600080600090505b600554811015611b815760048181548110611b0157611b00614468565b5b906000526020600020906007020160000160009054906101000a900473ffffffffffffffffffffffffffffffffffffffff1673ffffffffffffffffffffffffffffffffffffffff168373ffffffffffffffffffffffffffffffffffffffff1603611b6e5780915050611ba6565b8080611b7990614580565b915050611ae3565b507fffffffffffffffffffffffffffffffffffffffffffffffffffffffffffffffff90505b919050565b611bb482610528565b73ffffffffffffffffffffffffffffffffffffffff163373ffffffffffffffffffffffffffffffffffffffff1614611c21576040517f08c379a0000000000000000000000000000000000000000000000000000000008152600401611c18906149b3565b60405180910390fd5b6000600282604051602001611c369190614665565b604051602081830303815290604052604051611c5291906146b8565b602060405180830381855afa158015611c6f573d6000803e3d6000fd5b5050506040513d601f19601f82011682018060405250810190611c9291906146fb565b905080600660003373ffffffffffffffffffffffffffffffffffffffff1673ffffffffffffffffffffffffffffffffffffffff1681526020019081526020016000206000018190555082604051611ce99190614665565b60405180910390207f8bdb409891725ce39196ef62e4575eaa0766913147d8e78b2c818015ecd7652983604051611d209190613fea565b60405180910390a2505050565b8a73ffffffffffffffffffffffffffffffffffffffff163373ffffffffffffffffffffffffffffffffffffffff1614611d9b576040517f08c379a0000000000000000000000000000000000000000000000000000000008152600401611d9290614a6b565b60405180910390fd5b60006040518061014001604052808c81526020018b81526020018a8152602001898152602001888152602001878152602001868152602001858152602001848152602001838152509050600760008d73ffffffffffffffffffffffffffffffffffffffff1673ffffffffffffffffffffffffffffffffffffffff1681526020019081526020016000208190806001815401808255809150506001900390600052602060002090600a02016000909190919091506000820151816000019081611e639190614c22565b506020820151816001019081611e799190614c22565b506040820151816002019081611e8f9190614c22565b506060820151816003019081611ea59190614c22565b506080820151816004019081611ebb9190614c22565b5060a0820151816005019081611ed19190614c22565b5060c0820151816006019081611ee79190614c22565b5060e0820151816007019081611efd9190614c22565b50610100820151816008019081611f149190614c22565b50610120820151816009019081611f2b9190614c22565b50505080600883604051611f3f9190614665565b90815260200160405180910390206000820151816000019081611f629190614c22565b506020820151816001019081611f789190614c22565b506040820151816002019081611f8e9190614c22565b506060820151816003019081611fa49190614c22565b506080820151816004019081611fba9190614c22565b5060a0820151816005019081611fd09190614c22565b5060c0820151816006019081611fe69190614c22565b5060e0820151816007019081611ffc9190614c22565b506101008201518160080190816120139190614c22565b5061012082015181600901908161202a9190614c22565b509050508060098660405161203f9190614665565b908152602001604051809103902060008201518160000190816120629190614c22565b5060208201518160010190816120789190614c22565b50604082015181600201908161208e9190614c22565b5060608201518160030190816120a49190614c22565b5060808201518160040190816120ba9190614c22565b5060a08201518160050190816120d09190614c22565b5060c08201518160060190816120e69190614c22565b5060e08201518160070190816120fc9190614c22565b506101008201518160080190816121139190614c22565b5061012082015181600901908161212a9190614c22565b50905050505050505050505050505050565b6000600160003373ffffffffffffffffffffffffffffffffffffffff1673ffffffffffffffffffffffffffffffffffffffff16815260200190815260200160002060009054906101000a900460ff16612198576000905061228f565b6000600260003373ffffffffffffffffffffffffffffffffffffffff1673ffffffffffffffffffffffffffffffffffffffff16815260200190815260200160002090506000816040516121eb919061453a565b604051809103902084805190602001201490508061220e5760009250505061228f565b6000600360003373ffffffffffffffffffffffffffffffffffffffff1673ffffffffffffffffffffffffffffffffffffffff1681526020019081526020016000209050600081604051612261919061453a565b604051809103902087805190602001201490508061228657600094505050505061228f565b60019450505050505b92915050565b6060600033905060005b6004805490508110156123ee578173ffffffffffffffffffffffffffffffffffffffff16600482815481106122d7576122d6614468565b5b906000526020600020906007020160000160009054906101000a900473ffffffffffffffffffffffffffffffffffffffff1673ffffffffffffffffffffffffffffffffffffffff16036123db576004818154811061233857612337614468565b5b9060005260206000209060070201600201805461235490614437565b80601f016020809104026020016040519081016040528092919081815260200182805461238090614437565b80156123cd5780601f106123a2576101008083540402835291602001916123cd565b820191906000526020600020905b8154815290600101906020018083116123b057829003601f168201915b505050505092505050612403565b80806123e690614580565b91505061229f565b50604051806020016040528060008152509150505b90565b6060600760008373ffffffffffffffffffffffffffffffffffffffff1673ffffffffffffffffffffffffffffffffffffffff168152602001908152602001600020805480602002602001604051908101604052809291908181526020016000905b82821015612a4e57838290600052602060002090600a02016040518061014001604052908160008201805461249b90614437565b80601f01602080910402602001604051908101604052809291908181526020018280546124c790614437565b80156125145780601f106124e957610100808354040283529160200191612514565b820191906000526020600020905b8154815290600101906020018083116124f757829003601f168201915b5050505050815260200160018201805461252d90614437565b80601f016020809104026020016040519081016040528092919081815260200182805461255990614437565b80156125a65780601f1061257b576101008083540402835291602001916125a6565b820191906000526020600020905b81548152906001019060200180831161258957829003601f168201915b505050505081526020016002820180546125bf90614437565b80601f01602080910402602001604051908101604052809291908181526020018280546125eb90614437565b80156126385780601f1061260d57610100808354040283529160200191612638565b820191906000526020600020905b81548152906001019060200180831161261b57829003601f168201915b5050505050815260200160038201805461265190614437565b80601f016020809104026020016040519081016040528092919081815260200182805461267d90614437565b80156126ca5780601f1061269f576101008083540402835291602001916126ca565b820191906000526020600020905b8154815290600101906020018083116126ad57829003601f168201915b505050505081526020016004820180546126e390614437565b80601f016020809104026020016040519081016040528092919081815260200182805461270f90614437565b801561275c5780601f106127315761010080835404028352916020019161275c565b820191906000526020600020905b81548152906001019060200180831161273f57829003601f168201915b5050505050815260200160058201805461277590614437565b80601f01602080910402602001604051908101604052809291908181526020018280546127a190614437565b80156127ee5780601f106127c3576101008083540402835291602001916127ee565b820191906000526020600020905b8154815290600101906020018083116127d157829003601f168201915b5050505050815260200160068201805461280790614437565b80601f016020809104026020016040519081016040528092919081815260200182805461283390614437565b80156128805780601f1061285557610100808354040283529160200191612880565b820191906000526020600020905b81548152906001019060200180831161286357829003601f168201915b5050505050815260200160078201805461289990614437565b80601f01602080910402602001604051908101604052809291908181526020018280546128c590614437565b80156129125780601f106128e757610100808354040283529160200191612912565b820191906000526020600020905b8154815290600101906020018083116128f557829003601f168201915b5050505050815260200160088201805461292b90614437565b80601f016020809104026020016040519081016040528092919081815260200182805461295790614437565b80156129a45780601f10612979576101008083540402835291602001916129a4565b820191906000526020600020905b81548152906001019060200180831161298757829003601f168201915b505050505081526020016009820180546129bd90614437565b80601f01602080910402602001604051908101604052809291908181526020018280546129e990614437565b8015612a365780601f10612a0b57610100808354040283529160200191612a36565b820191906000526020600020905b815481529060010190602001808311612a1957829003601f168201915b50505050508152505081526020019060010190612467565b505050509050919050565b612a6161340a565b600982604051612a719190614665565b908152602001604051809103902060405180610140016040529081600082018054612a9b90614437565b80601f0160208091040260200160405190810160405280929190818152602001828054612ac790614437565b8015612b145780601f10612ae957610100808354040283529160200191612b14565b820191906000526020600020905b815481529060010190602001808311612af757829003601f168201915b50505050508152602001600182018054612b2d90614437565b80601f0160208091040260200160405190810160405280929190818152602001828054612b5990614437565b8015612ba65780601f10612b7b57610100808354040283529160200191612ba6565b820191906000526020600020905b815481529060010190602001808311612b8957829003601f168201915b50505050508152602001600282018054612bbf90614437565b80601f0160208091040260200160405190810160405280929190818152602001828054612beb90614437565b8015612c385780601f10612c0d57610100808354040283529160200191612c38565b820191906000526020600020905b815481529060010190602001808311612c1b57829003601f168201915b50505050508152602001600382018054612c5190614437565b80601f0160208091040260200160405190810160405280929190818152602001828054612c7d90614437565b8015612cca5780601f10612c9f57610100808354040283529160200191612cca565b820191906000526020600020905b815481529060010190602001808311612cad57829003601f168201915b50505050508152602001600482018054612ce390614437565b80601f0160208091040260200160405190810160405280929190818152602001828054612d0f90614437565b8015612d5c5780601f10612d3157610100808354040283529160200191612d5c565b820191906000526020600020905b815481529060010190602001808311612d3f57829003601f168201915b50505050508152602001600582018054612d7590614437565b80601f0160208091040260200160405190810160405280929190818152602001828054612da190614437565b8015612dee5780601f10612dc357610100808354040283529160200191612dee565b820191906000526020600020905b815481529060010190602001808311612dd157829003601f168201915b50505050508152602001600682018054612e0790614437565b80601f0160208091040260200160405190810160405280929190818152602001828054612e3390614437565b8015612e805780601f10612e5557610100808354040283529160200191612e80565b820191906000526020600020905b815481529060010190602001808311612e6357829003601f168201915b50505050508152602001600782018054612e9990614437565b80601f0160208091040260200160405190810160405280929190818152602001828054612ec590614437565b8015612f125780601f10612ee757610100808354040283529160200191612f12565b820191906000526020600020905b815481529060010190602001808311612ef557829003601f168201915b50505050508152602001600882018054612f2b90614437565b80601f0160208091040260200160405190810160405280929190818152602001828054612f5790614437565b8015612fa45780601f10612f7957610100808354040283529160200191612fa4565b820191906000526020600020905b815481529060010190602001808311612f8757829003601f168201915b50505050508152602001600982018054612fbd90614437565b80601f0160208091040260200160405190810160405280929190818152602001828054612fe990614437565b80156130365780601f1061300b57610100808354040283529160200191613036565b820191906000526020600020905b81548152906001019060200180831161301957829003601f168201915b5050505050815250509050919050565b6000805b60048054905081101561312e578773ffffffffffffffffffffffffffffffffffffffff166004828154811061308257613081614468565b5b906000526020600020906007020160000160009054906101000a900473ffffffffffffffffffffffffffffffffffffffff1673ffffffffffffffffffffffffffffffffffffffff160361311b57600191508773ffffffffffffffffffffffffffffffffffffffff167f965b3106ea605b2c0c795263318df6f81c72f087a8ce9e50e5e0d95a80b5fd9360405160405180910390a261312e565b808061312690614580565b91505061304a565b508015613170576040517f08c379a000000000000000000000000000000000000000000000000000000000815260040161316790614d40565b60405180910390fd5b60046040518060e001604052808973ffffffffffffffffffffffffffffffffffffffff16815260200188815260200187815260200186815260200185815260200184815260200160011515815250908060018154018082558091505060019003906000526020600020906007020160009091909190915060008201518160000160006101000a81548173ffffffffffffffffffffffffffffffffffffffff021916908373ffffffffffffffffffffffffffffffffffffffff16021790555060208201518160010190816132439190614c22565b5060408201518160020190816132599190614c22565b50606082015181600301908161326f9190614c22565b50608082015181600401908051906020019061328c92919061345d565b5060a08201518160050190816132a29190614c22565b5060c08201518160060160006101000a81548160ff0219169083151502179055505050600560008154809291906132d890614580565b9190505550600060026040516020016132f09061461f565b60405160208183030381529060405260405161330c91906146b8565b602060405180830381855afa158015613329573d6000803e3d6000fd5b5050506040513d601f19601f8201168201806040525081019061334c91906146fb565b905060405180604001604052808281526020016040518060400160405280600981526020017f696e737469747574650000000000000000000000000000000000000000000000815250815250600660008a73ffffffffffffffffffffffffffffffffffffffff1673ffffffffffffffffffffffffffffffffffffffff1681526020019081526020016000206000820151816000015560208201518160010190816133f69190614c22565b509050505050505050505050565b60055481565b604051806101400160405280606081526020016060815260200160608152602001606081526020016060815260200160608152602001606081526020016060815260200160608152602001606081525090565b8280548282559060005260206000209081019282156134a5579160200282015b828111156134a45782518290816134949190614c22565b509160200191906001019061347d565b5b5090506134b291906134b6565b5090565b5b808211156134d657600081816134cd91906134da565b506001016134b7565b5090565b5080546134e690614437565b6000825580601f106134f85750613517565b601f016020900490600052602060002090810190613516919061351a565b5b50565b5b8082111561353357600081600090555060010161351b565b5090565b6000604051905090565b600080fd5b600080fd5b600073ffffffffffffffffffffffffffffffffffffffff82169050919050565b60006135768261354b565b9050919050565b6135868161356b565b811461359157600080fd5b50565b6000813590506135a38161357d565b92915050565b6000602082840312156135bf576135be613541565b5b60006135cd84828501613594565b91505092915050565b6000819050919050565b6135e9816135d6565b82525050565b600081519050919050565b600082825260208201905092915050565b60005b8381101561362957808201518184015260208101905061360e565b60008484015250505050565b6000601f19601f8301169050919050565b6000613651826135ef565b61365b81856135fa565b935061366b81856020860161360b565b61367481613635565b840191505092915050565b600060408201905061369460008301856135e0565b81810360208301526136a68184613646565b90509392505050565b60006020820190506136c460008301846135e0565b92915050565b600080fd5b600080fd5b7f4e487b7100000000000000000000000000000000000000000000000000000000600052604160045260246000fd5b61370c82613635565b810181811067ffffffffffffffff8211171561372b5761372a6136d4565b5b80604052505050565b600061373e613537565b905061374a8282613703565b919050565b600067ffffffffffffffff82111561376a576137696136d4565b5b61377382613635565b9050602081019050919050565b82818337600083830152505050565b60006137a261379d8461374f565b613734565b9050828152602081018484840111156137be576137bd6136cf565b5b6137c9848285613780565b509392505050565b600082601f8301126137e6576137e56136ca565b5b81356137f684826020860161378f565b91505092915050565b60006020828403121561381557613814613541565b5b600082013567ffffffffffffffff81111561383357613832613546565b5b61383f848285016137d1565b91505092915050565b6138518161356b565b82525050565b600060208201905061386c6000830184613848565b92915050565b6000819050919050565b61388581613872565b811461389057600080fd5b50565b6000813590506138a28161387c565b92915050565b6000602082840312156138be576138bd613541565b5b60006138cc84828501613893565b91505092915050565b60008115159050919050565b6138ea816138d5565b82525050565b600060c0820190506139056000830189613848565b81810360208301526139178188613646565b9050818103604083015261392b8187613646565b9050818103606083015261393f8186613646565b905081810360808301526139538185613646565b905061396260a08301846138e1565b979650505050505050565b6000806040838503121561398457613983613541565b5b600083013567ffffffffffffffff8111156139a2576139a1613546565b5b6139ae858286016137d1565b925050602083013567ffffffffffffffff8111156139cf576139ce613546565b5b6139db858286016137d1565b9150509250929050565b60006020820190506139fa60008301846138e1565b92915050565b600081519050919050565b600082825260208201905092915050565b6000819050602082019050919050565b600082825260208201905092915050565b6000613a48826135ef565b613a528185613a2c565b9350613a6281856020860161360b565b613a6b81613635565b840191505092915050565b6000613a828383613a3d565b905092915050565b6000602082019050919050565b6000613aa282613a00565b613aac8185613a0b565b935083602082028501613abe85613a1c565b8060005b85811015613afa5784840389528151613adb8582613a76565b9450613ae683613a8a565b925060208a01995050600181019050613ac2565b50829750879550505050505092915050565b600060e082019050613b21600083018a613848565b8181036020830152613b338189613646565b90508181036040830152613b478188613646565b90508181036060830152613b5b8187613646565b90508181036080830152613b6f8186613a97565b905081810360a0830152613b838185613646565b9050613b9260c08301846138e1565b98975050505050505050565b613ba781613872565b82525050565b6000602082019050613bc26000830184613b9e565b92915050565b6000610140830160008301518482036000860152613be68282613a3d565b91505060208301518482036020860152613c008282613a3d565b91505060408301518482036040860152613c1a8282613a3d565b91505060608301518482036060860152613c348282613a3d565b91505060808301518482036080860152613c4e8282613a3d565b91505060a083015184820360a0860152613c688282613a3d565b91505060c083015184820360c0860152613c828282613a3d565b91505060e083015184820360e0860152613c9c8282613a3d565b915050610100830151848203610100860152613cb88282613a3d565b915050610120830151848203610120860152613cd48282613a3d565b9150508091505092915050565b60006020820190508181036000830152613cfb8184613bc8565b905092915050565b600080600060608486031215613d1c57613d1b613541565b5b600084013567ffffffffffffffff811115613d3a57613d39613546565b5b613d46868287016137d1565b935050602084013567ffffffffffffffff811115613d6757613d66613546565b5b613d73868287016137d1565b925050604084013567ffffffffffffffff811115613d9457613d93613546565b5b613da0868287016137d1565b9150509250925092565b6000819050919050565b613dbd81613daa565b82525050565b6000602082019050613dd86000830184613db4565b92915050565b60008060008060008060008060008060006101608c8e031215613e0457613e03613541565b5b6000613e128e828f01613594565b9b505060208c013567ffffffffffffffff811115613e3357613e32613546565b5b613e3f8e828f016137d1565b9a505060408c013567ffffffffffffffff811115613e6057613e5f613546565b5b613e6c8e828f016137d1565b99505060608c013567ffffffffffffffff811115613e8d57613e8c613546565b5b613e998e828f016137d1565b98505060808c013567ffffffffffffffff811115613eba57613eb9613546565b5b613ec68e828f016137d1565b97505060a08c013567ffffffffffffffff811115613ee757613ee6613546565b5b613ef38e828f016137d1565b96505060c08c013567ffffffffffffffff811115613f1457613f13613546565b5b613f208e828f016137d1565b95505060e08c013567ffffffffffffffff811115613f4157613f40613546565b5b613f4d8e828f016137d1565b9450506101008c013567ffffffffffffffff811115613f6f57613f6e613546565b5b613f7b8e828f016137d1565b9350506101208c013567ffffffffffffffff811115613f9d57613f9c613546565b5b613fa98e828f016137d1565b9250506101408c013567ffffffffffffffff811115613fcb57613fca613546565b5b613fd78e828f016137d1565b9150509295989b509295989b9093969950565b600060208201905081810360008301526140048184613646565b905092915050565b600081519050919050565b600082825260208201905092915050565b6000819050602082019050919050565b60006101408301600083015184820360008601526140568282613a3d565b915050602083015184820360208601526140708282613a3d565b9150506040830151848203604086015261408a8282613a3d565b915050606083015184820360608601526140a48282613a3d565b915050608083015184820360808601526140be8282613a3d565b91505060a083015184820360a08601526140d88282613a3d565b91505060c083015184820360c08601526140f28282613a3d565b91505060e083015184820360e086015261410c8282613a3d565b9150506101008301518482036101008601526141288282613a3d565b9150506101208301518482036101208601526141448282613a3d565b9150508091505092915050565b600061415d8383614038565b905092915050565b6000602082019050919050565b600061417d8261400c565b6141878185614017565b93508360208202850161419985614028565b8060005b858110156141d557848403895281516141b68582614151565b94506141c183614165565b925060208a0199505060018101905061419d565b50829750879550505050505092915050565b600060208201905081810360008301526142018184614172565b905092915050565b600067ffffffffffffffff821115614224576142236136d4565b5b602082029050602081019050919050565b600080fd5b600061424d61424884614209565b613734565b905080838252602082019050602084028301858111156142705761426f614235565b5b835b818110156142b757803567ffffffffffffffff811115614295576142946136ca565b5b8086016142a289826137d1565b85526020850194505050602081019050614272565b5050509392505050565b600082601f8301126142d6576142d56136ca565b5b81356142e684826020860161423a565b91505092915050565b60008060008060008060c0878903121561430c5761430b613541565b5b600061431a89828a01613594565b965050602087013567ffffffffffffffff81111561433b5761433a613546565b5b61434789828a016137d1565b955050604087013567ffffffffffffffff81111561436857614367613546565b5b61437489828a016137d1565b945050606087013567ffffffffffffffff81111561439557614394613546565b5b6143a189828a016137d1565b935050608087013567ffffffffffffffff8111156143c2576143c1613546565b5b6143ce89828a016142c1565b92505060a087013567ffffffffffffffff8111156143ef576143ee613546565b5b6143fb89828a016137d1565b9150509295509295509295565b7f4e487b7100000000000000000000000000000000000000000000000000000000600052602260045260246000fd5b6000600282049050600182168061444f57607f821691505b60208210810361446257614461614408565b5b50919050565b7f4e487b7100000000000000000000000000000000000000000000000000000000600052603260045260246000fd5b600081905092915050565b60008190508160005260206000209050919050565b600081546144c481614437565b6144ce8186614497565b945060018216600081146144e957600181146144fe57614531565b60ff1983168652811515820286019350614531565b614507856144a2565b60005b838110156145295781548189015260018201915060208101905061450a565b838801955050505b50505092915050565b600061454682846144b7565b915081905092915050565b7f4e487b7100000000000000000000000000000000000000000000000000000000600052601160045260246000fd5b600061458b82613872565b91507fffffffffffffffffffffffffffffffffffffffffffffffffffffffffffffffff82036145bd576145bc614551565b5b600182019050919050565b600081905092915050565b7f696e737469747574650000000000000000000000000000000000000000000000600082015250565b60006146096009836145c8565b9150614614826145d3565b600982019050919050565b600061462a826145fc565b9150819050919050565b600061463f826135ef565b61464981856145c8565b935061465981856020860161360b565b80840191505092915050565b60006146718284614634565b915081905092915050565b600081519050919050565b60006146928261467c565b61469c8185614497565b93506146ac81856020860161360b565b80840191505092915050565b60006146c48284614687565b915081905092915050565b6146d8816135d6565b81146146e357600080fd5b50565b6000815190506146f5816146cf565b92915050565b60006020828403121561471157614710613541565b5b600061471f848285016146e6565b91505092915050565b60008190508160005260206000209050919050565b6000815461474a81614437565b61475481866145c8565b9450600182166000811461476f5760018114614784576147b7565b60ff19831686528115158202860193506147b7565b61478d85614728565b60005b838110156147af57815481890152600182019150602081019050614790565b838801955050505b50505092915050565b60006147cc828461473d565b915081905092915050565b7f496e737469747574206e6f6e2074726f75766500000000000000000000000000600082015250565b600061480d6013836135fa565b9150614818826147d7565b602082019050919050565b6000602082019050818103600083015261483c81614800565b9050919050565b7f496e64657820656e206465686f7273206465206c6120706c6167652076616c6960008201527f6465000000000000000000000000000000000000000000000000000000000000602082015250565b600061489f6022836135fa565b91506148aa82614843565b604082019050919050565b600060208201905081810360008301526148ce81614892565b9050919050565b7f6e65207065757420706173206163636564657200000000000000000000000000600082015250565b600061490b6013836135fa565b9150614916826148d5565b602082019050919050565b6000602082019050818103600083015261493a816148fe565b9050919050565b7f5365756c206c20696e7374697475742070657574207265696e697469616c697360008201527f657220736f6e206d6f7420646520706173736500000000000000000000000000602082015250565b600061499d6033836135fa565b91506149a882614941565b604082019050919050565b600060208201905081810360008301526149cc81614990565b9050919050565b7f566f7573206e206574657320706173206175746f72697365206120616a6f757460008201527f657220756e206574756469616e7420706f75722063657420696e73746974757460208201527f2e00000000000000000000000000000000000000000000000000000000000000604082015250565b6000614a556041836135fa565b9150614a60826149d3565b606082019050919050565b60006020820190508181036000830152614a8481614a48565b9050919050565b60006020601f8301049050919050565b600082821b905092915050565b600060088302614ad87fffffffffffffffffffffffffffffffffffffffffffffffffffffffffffffffff82614a9b565b614ae28683614a9b565b95508019841693508086168417925050509392505050565b6000819050919050565b6000614b1f614b1a614b1584613872565b614afa565b613872565b9050919050565b6000819050919050565b614b3983614b04565b614b4d614b4582614b26565b848454614aa8565b825550505050565b600090565b614b62614b55565b614b6d818484614b30565b505050565b5b81811015614b9157614b86600082614b5a565b600181019050614b73565b5050565b601f821115614bd657614ba781614728565b614bb084614a8b565b81016020851015614bbf578190505b614bd3614bcb85614a8b565b830182614b72565b50505b505050565b600082821c905092915050565b6000614bf960001984600802614bdb565b1980831691505092915050565b6000614c128383614be8565b9150826002028217905092915050565b614c2b826135ef565b67ffffffffffffffff811115614c4457614c436136d4565b5b614c4e8254614437565b614c59828285614b95565b600060209050601f831160018114614c8c5760008415614c7a578287015190505b614c848582614c06565b865550614cec565b601f198416614c9a86614728565b60005b82811015614cc257848901518255600182019150602085019450602081019050614c9d565b86831015614cdf5784890151614cdb601f891682614be8565b8355505b6001600288020188555050505b505050505050565b7f20696e7374697475652064656a61206578697374616e74000000000000000000600082015250565b6000614d2a6017836135fa565b9150614d3582614cf4565b602082019050919050565b60006020820190508181036000830152614d5981614d1d565b905091905056fea26469706673582212208cef28746f435bea48a305ef3e6fc203a78d2347882fc9b2de74bbac75962cd864736f6c6343000811003338633639373665356235343130343135626465393038626434646565313564666231363761396338373366633462623861383166366632616234343861393138",
  "immutableReferences": {},
  "source": "// SPDX-License-Identifier: MIT\npragma experimental ABIEncoderV2;\npragma solidity >=0.5.8;\n\ncontract checkActeur {\n    address admin = 0x7807C109B324Ab7a3BbE36040b19e5007f3cb1aB;\n    \n    mapping(address => bool) private isAuthorized;\n    mapping(address => string) private passwords;\n    mapping(address => string) private emails;\n    constructor() public {\n        // Donner l'autorisation  l'adresse admin\n        isAuthorized[admin] = true;\n        passwords[admin] = \"8c6976e5b5410415bde908bd4dee15dfb167a9c873fc4bb8a81f6f2ab448a918\";\n        //compte[admin]=Compte(\"admin\",\"8c6976e5b5410415bde908bd4dee15dfb167a9c873fc4bb8a81f6f2ab448a918\");\n        emails[admin] = \"admin@example.com\";\n    }\n  \n    struct Institute\n    {\n        address adresseEthereum;\n        string name;\n        string email;\n        string WebSite;\n        string[] departements;\n        string acronym;\n        bool autorisation;\n    }\n   \n    struct Compte\n    {\n        bytes32 pass;\n        string role;\n    }\n    struct Student\n    {\n        string institutename;\n        string name;\n        string email;\n        string dateOfBirth;\n        string mention;\n        string dateRemiseDiplome;\n        string numCIN;\n        string department;\n        string ipfsHash;\n        string id;\n    }\n    Institute[] public institute;\n    \n    uint256 public instituteCount = 0;\n    mapping(address=>Compte) public compte;\n    // Mapping pour associer  chaque adresse d'institut la liste de ses tudiants\n    mapping(address => Student[]) private instituteToStudents;\n    mapping(string => Student) studentsById;\n    mapping(string => Student) studentByCin;\n\n    function checkAuthorization(string memory email,string memory passwordHash) public view returns (bool) {\n        // Vrifier si l'adresse est autorise\n        if (!isAuthorized[msg.sender]) {\n            return false;\n        }\n\n        string storage storedPasswordHash = passwords[msg.sender];\n        bool passwordMatches = keccak256(bytes(passwordHash)) == keccak256(bytes(storedPasswordHash));\n          if (!passwordMatches) {\n        return false;\n    }\n        string storage storedEmail = emails[msg.sender];\n        bool emailMatches = keccak256(bytes(email)) == keccak256(bytes(storedEmail));\n        if (!emailMatches) {\n        return false;\n    }\n\n        // Si l'adresse et le mot de passe sont corrects, donner l'autorisation\n        return true;\n    }\n\n    event InstituteAlreadyExists(address indexed _adresseEthereum);\n    function addInstitute(address _adresseEthereum, string memory _name, string memory _email, string memory _WebSite, string[] memory _departements,\n                           string memory _acronym) public \n    {\n        //verifier est ce que l'adresse ethereum est deja existe, si oui on ne peut pas ajouter l'institue\n        bool exists = false;\n        for (uint i = 0; i < institute.length; i++) {\n            if (institute[i].adresseEthereum == _adresseEthereum) {\n                exists = true;\n                emit InstituteAlreadyExists(_adresseEthereum); // mettre l'vnement pour indiquer l'adresse Ethereum existante\n\n                break;\n            }\n        }\n    \n        require(!exists, \" institue deja existant\");\n\n        //l'ajout de l'institue \n        institute.push(Institute(_adresseEthereum, _name,_email, _WebSite, _departements,_acronym, true));\n        instituteCount++;\n        \n        \n        //le role et le mot de passe \n        bytes32 hashedPassword = sha256(abi.encodePacked(\"institute\"));\n        compte[_adresseEthereum] = Compte(hashedPassword, \"institute\");\n    }\n    \n    function getInstitute(uint index) public view returns (address, string memory, string memory, string memory, string[] memory, string memory, bool) {\n        require(index >= 0 && index < institute.length, \"Index en dehors de la plage valide\");\n\n        Institute memory inst = institute[index];\n        return (inst.adresseEthereum, inst.name, inst.email, inst.WebSite, inst.departements, inst.acronym, inst.autorisation);\n    }\n   function getInstituteCount() public view returns (uint256) {\n        return institute.length;\n    }\n     \n    function getMyInstitute() public view returns (address, string memory, string memory, string memory, string[] memory, string memory, bool) {\n    address myAddress = msg.sender;\n    for (uint i = 0; i < institute.length; i++) {\n        if (institute[i].adresseEthereum == myAddress) {\n            Institute memory inst = institute[i];\n            return (inst.adresseEthereum, inst.name, inst.email, inst.WebSite, inst.departements, inst.acronym, inst.autorisation);\n        }\n    }\n    revert(\"Institut non trouve\");\n    }\n   \n\n\n    function findInstitute(address _adresseEthereum) public view returns(int256)\n    {\n        for(uint i=0; i<instituteCount; i++)\n        {\n            if(_adresseEthereum == institute [i].adresseEthereum)\n                return int256(i);\n        }\n        return -1;\n    }\n    function getInstituteAddressByEmail(string memory _email) public view returns (address) {\n    for (uint i = 0; i < institute.length; i++) {\n        //le email est hash\n        if (keccak256(bytes(institute[i].email)) == keccak256(bytes(_email))) {\n            return institute[i].adresseEthereum;\n        }\n    }\n    return address(0); // retourne l'adresse zro si l'email n'est associ  aucun institut\n}\n   function getEmailFromAddress() public view returns (string memory) {\n    address ethereumAddress= msg.sender;\n    for (uint i = 0; i < institute.length; i++) {\n        if (institute[i].adresseEthereum == ethereumAddress) {\n            return institute[i].email;\n        }\n    }\n    \n    // Retourner une chane vide si l'adresse Ethereum n'est pas trouve\n    return \"\";\n}\n\n//update password forget\n    function resetInstitutePassword(string memory email, string memory newPassword) public {\n    require(msg.sender == getInstituteAddressByEmail(email), \"Seul l institut peut reinitialiser son mot de passe\");\n    \n    bytes32 hashedNewPassword = sha256(abi.encodePacked(newPassword));\n    compte[msg.sender].pass = hashedNewPassword;\n    \n    emit InstituteCredentialsUpdated(email, newPassword);\n}\n\n    function authorizedInstitute(string memory email, string memory password) public view returns (bool) {\n    bytes32 roleInstitute = keccak256(abi.encodePacked(\"institute\"));\n    bytes32 hashedPassword = sha256(abi.encodePacked(password));\n    //email hash depuis la fonction getInstituteAddressByEmail\n    address instituteAddress = getInstituteAddressByEmail(email);\n    if (instituteAddress == msg.sender &&\n        compte[instituteAddress].pass == hashedPassword &&\n        keccak256(abi.encodePacked(compte[instituteAddress].role)) == roleInstitute\n    ) {\n        return true;\n    }\n    return false;\n}\n    function getPassword(address addr) public view returns(bytes32){\n        return compte[addr].pass;\n    }\n    event InstituteCredentialsUpdated(string indexed _email, string _newPassword);\n\n    function updateInstituteCredentials(string memory email, string memory oldPassword, string memory newPassword) public {\n        require(\n            authorizedInstitute(email, oldPassword),\n            \"ne peut pas acceder\"\n        );\n\n        bytes32 hashedNewPassword = sha256(abi.encodePacked(newPassword));\n        compte[msg.sender].pass = hashedNewPassword;\n\n        emit InstituteCredentialsUpdated(email, newPassword);\n    }    \n    \n    \n    // Fonction pour ajouter un tudiant pour un institut donn\nfunction addStudentForInstitute(address _instituteAddress, string memory _institutename,string memory _name,string memory _email, string memory _dateOfBirth, string memory _mention, string memory _dateRemiseDiplome, string memory _numCIN, string memory _department, string memory _ipfsHash,string memory _diplomaId) public {\n    require(msg.sender == _instituteAddress, \"Vous n etes pas autorise a ajouter un etudiant pour cet institut.\");\n    \n    // Crer un nouvel tudiant\n    Student memory newStudent = Student({\n        institutename: _institutename,\n        name: _name,\n        email:_email,\n        dateOfBirth: _dateOfBirth,\n        mention: _mention,\n        dateRemiseDiplome: _dateRemiseDiplome,\n        numCIN: _numCIN,\n        department:_department,\n        ipfsHash:_ipfsHash,\n        id:_diplomaId\n\n    });\n    \n    // Ajouter l'tudiant  la liste correspondante  l'adresse de l'institut\n    instituteToStudents[_instituteAddress].push(newStudent);\n    studentsById[_diplomaId] = newStudent;\n    studentByCin[_numCIN] = newStudent;\n}\n\n// Fonction pour rcuprer tous les tudiants enregistrs pour un institut donn\nfunction getStudentsForInstitute(address _instituteAddress) public view returns (Student[] memory) {\n    return instituteToStudents[_instituteAddress];\n}\n// Fonction pour rcuprer un tudiant par son diplme ID\nfunction getDiplomaById(string memory _diplomaId) public view returns (Student memory) {\n    return studentsById[_diplomaId];\n}\nfunction getDiplomaByCin(string memory _numCIN) public view returns (Student memory){\n    return studentByCin[_numCIN];\n}\n\n\n\n    \n}\n    \n   \n\n     \n\n    \n",
  "sourcePath": "C:\\Users\\pc\\Desktop\\Project_PFEv1\\truffle\\contracts\\CheckActeur.sol",
  "compiler": {
    "name": "solc",
    "version": "0.8.17+commit.8df45f5f.Emscripten.clang"
  },
  "schemaVersion": "3.4.10",
  "updatedAt": "2023-06-04T11:24:20.750Z",
  "networkType": "ethereum",
  "devdoc": {
    "kind": "dev",
    "methods": {},
    "version": 1
  },
  "userdoc": {
    "kind": "user",
    "methods": {},
    "version": 1
  }
}